:020000040800F2
:1000000008CB0120C52F00089503000897030008BE
:100010009B0300089F030008A303000800000000E2
:10002000000000000000000000000000A70300081E
:10003000A903000800000000AB030008AD0300089E
:10004000DF2F0008DF2F0008DF2F0008C12B00087A
:10005000DF2F0008DF2F0008DF2F0008DF2F000848
:10006000DF2F0008DF2F0008DF2F0008DF2F000838
:10007000DF2F0008DF2F0008DF2F0008DF2F000828
:10008000DF2F0008DF2F0008DF2F0008DF2F000818
:10009000DF2F0008DF2F0008DF2F0008DF2F000808
:1000A000DF2F0008DF2F0008DF2F0008DF2F0008F8
:1000B000DF2F0008DF2F0008556D0008DF2F000834
:1000C000DF2F0008DF2F0008DF2F0008DF2F0008D8
:1000D000DF2F00083B2F0008BD270008AB2C0008CD
:1000E000DF2F00089D2B0008DF2F0008DF2F0008FE
:1000F000DF2F0008DF2F0008DF2F0008DF2F0008A8
:10010000DF2F0008FD250008DF2F0008DF2F000883
:10011000DF2F0008DF2F0008DF2F0008412900082B
:10012000DF2F0008DF2F0008DF2F0008DF2F000877
:10013000DF2F0008DF2F0008DF2F0008DF2F000867
:10014000DF2F0008DF2F0008DF2F0008DF2F000857
:10015000DF2F0008DF2F0008DF2F0008DF2F000847
:10016000DF2F0008DF2F0008DF2F0008DF2F000837
:10017000DF2F0008DF2F0008DF2F0008DF2F000827
:10018000DF2F0008DF2F000800F002F800F0B2F8BF
:100190000AA090E8000C82448344AAF10107DA45E2
:1001A00001D100F0A7F8AFF2090EBAE80F0013F082
:1001B000010F18BFFB1A43F00103184768D4000071
:1001C00088D400000A444FF0000C10F8013B13F0F3
:1001D000070408BF10F8014B1D1108BF10F8015BA0
:1001E000641E05D010F8016B641E01F8016BF9D193
:1001F00013F0080F1EBF10F8014BAD1C0C1B09D1EA
:100200006D1E58BF01F801CBFAD505E014F8016B5B
:1002100001F8016B6D1EF9D59142D6D370470000ED
:100220000023002400250026103A28BF78C1FBD8FF
:10023000520728BF30C148BF0B6070476E290BF0D2
:10024000B18470290BF0078266290CF0CA856529F4
:100250000CF0C78567290CF0C4856129AFF30080D5
:1002600003681B0A28BF41F0800169290BF07881DF
:1002700064290BF0758175290BF072816F290BF0E1
:10028000A88578290BF0D381E9290BF04385E4296F
:100290000BF04085F5290BF03D85EF290BF0A58586
:1002A000F8290BF0D2810368DB0928BF41F08001F7
:1002B00063290BF0B28473290BF0B784E3290CF0A7
:1002C0005680F3290CF05B80002070471FB50CF0BE
:1002D00083FD0CF0A9F80400002000210CF066FD5D
:1002E000401C6060002000210CF04AFDE0601FBD52
:1002F00010B510BD0CF06BF81146FFF7E7FF00F0EA
:100300002FF80CF047F903B4FFF7F2FF03BC02F03B
:10031000B5FD000030BF72B6704762B6704780F31B
:10032000088870471CB50121202003F0FFF94FF425
:100330008070009001208DF8040000208DF80600E8
:1003400003208DF8050001208DF80700694610484C
:1003500002F04EFF4FF480710D4802F0C7FF1CBD44
:1003600010B5FFF7DFFF4FF48071094802F0BCFFC2
:100370004FF48071064802F0B9FF41F2883002F074
:100380005DFD4FF48071024802F0AEFF002010BD09
:1003900000140240704700BFFEE700BFFEE700BF49
:1003A000FEE700BFFEE770477047704770470000E8
:1003B0000CB50020019000907648006840F4803031
:1003C0007449086000BF7348006800F40030009072
:1003D0000198401C0190009818B90198B0F5A04F01
:1003E000F1D16C48006800F4003010B10120009099
:1003F00001E0002000900098012846D16548403077
:10040000006840F0805063494031086062480068ED
:1004100040F44040604908605E48083000685D492B
:10042000083108600846006840F40040086008464B
:10043000006840F4A05008605848091F0860081F71
:10044000006840F08070091F086000BF51480068D4
:1004500000F000700028F9D040F2057050490860A3
:100460004C480830006820F003004A490831086011
:100470000846006840F00200086000BF45480830A8
:10048000006800F00C000828F8D10CBD10B54548F4
:10049000006840F47000434908603E48006840F03E
:1004A00001003C49086000203A4908310860394899
:1004B00000683D490840374908603C48091D08600C
:1004C000081F006820F48020091F086000203149BF
:1004D0000C310860FFF76CFF4FF000603149803944
:1004E000086010BD70B50020002202230024022104
:1004F000284D08352D6805F00C0020B1042806D0E1
:10050000082834D107E02A4D2A4E356033E02A4DC1
:10051000284E35602FE01F4D2D1D2D68C5F38054EA
:100520001C4D2D1D2D6805F03F0154B1224DB5FB2A
:10053000F1F5184E361D3668C6F3881605FB06F22F
:1005400009E01B4DB5FBF1F5124E361D3668C6F3BA
:10055000881605FB06F20F4D2D1D2D68C5F30145CC
:100560006D1C6B00B2FBF3F5124E356003E0104DCD
:10057000104E356000BF00BF064D08352D68C5F32D
:1005800003150E4E705D0B4D2D68C540094E35604C
:1005900070BD000000380240007000400854400761
:1005A000003C024088ED00E0FFFFF6FE1030002422
:1005B0000024F4000000002000127A000400002053
:1005C00010B5044600BF0221414804F08FFC00280A
:1005D000F9D021463E4804F040FC00BF01213C48D0
:1005E00004F084FC0028F9D0394804F033FCC0B290
:1005F00010BD00B587B00121084603F097F801212E
:10060000080303F0EDF83820059002208DF818005B
:1006100000208DF81A0003208DF8190001208DF8B4
:100620001B0005A92B4802F0E3FD05220321294800
:1006300002F069FE05220421264802F064FE05222C
:100640001146244802F05FFE0121080303F01DF962
:1006500000214FF4805003F018F90020ADF800009D
:100660004FF48270ADF802000020ADF804000220C3
:10067000ADF806000120ADF808004002ADF80A0010
:100680003820ADF80C000020ADF80E000720ADF8C2
:10069000100069460E4804F065FA01210C4804F088
:1006A0005BFBFF20FFF78CFF07B000BD10B50446D1
:1006B000074800884FF6C77108400549088008467A
:1006C0000088204308800121014804F045FB10BD4B
:1006D000003001400004024010B500240020D84939
:1006E00008609020FFF76CFF0020FFF769FF0020F3
:1006F000FFF766FF0020FFF763FFFF20FFF760FFB3
:1007000044EA0024FF20FFF75BFF04430120CD49AA
:10071000C1F8B802204610BD1CB50121022003F02B
:1007200005F80121402003F001F84FF480400090CB
:1007300001208DF8040000208DF8060003208DF8BC
:10074000050001208DF807006946BF4802F050FD02
:10075000802000906946BD4802F04AFD8021BB48D8
:1007600002F0C2FD0120B6490860FFF742FF0020F9
:10077000FFF79CFFFFF7B0FFB54908801CBD10B51F
:1007800000240020AE4908600520FFF719FFFF2074
:10079000FFF716FF04460120AA49C1F8B802204617
:1007A00010BD10B504460020A54908600120FFF7E0
:1007B00007FF2046FFF704FF0120A249C1F8B80255
:1007C00010BD10B500209E4908600620FFF7F8FE16
:1007D00001209C49C1F8B80210BD10B5002098490D
:1007E00008600420FFF7ECFE01209649C1F8B8022A
:1007F00010BD2DE9F04106460C46174600209049F1
:1008000008600320FFF7DCFEC4F30740FFF7D8FEC3
:10081000C4F30720FFF7D4FEE0B2FFF7D1FE0025B6
:1008200005E0FF20FFF7CCFE7055681C85B2BD4285
:10083000F7DB012082490860BDE8F08110B500BFF8
:10084000FFF79DFF00F001000028F9D110BD2DE950
:10085000F04106460C461746FFF7B3FF00207849E3
:1008600008600220FFF7ACFEC4F30740FFF7A8FEC4
:10087000C4F30720FFF7A4FEE0B2FFF7A1FE0025B6
:1008800004E0705DFFF79CFE681C85B2BD42F8DB9A
:1008900001206B490860FFF7D1FFBDE8F0812DE929
:1008A000F04107460E461446F0B2C0F58075AC42E2
:1008B00000DC254612E02A4631463846FFF7C7FFDE
:1008C000AC4200D10BE02F442E44601B84B2B4F53F
:1008D000807F02DD4FF4807500E02546EBE700BF26
:1008E000BDE8F08110B5044621465AA00AF0DCFDAF
:1008F0002403FFF766FFFFF7A1FF002050490860BF
:100900002020FFF75DFEC4F30740FFF759FEC4F354
:100910000720FFF755FEE0B2FFF752FE01204949DC
:10092000C1F8B802FFF78AFF10BD2DE9F05F8146DC
:100930000F461646DFF824B14FEA1738C7F30B0A03
:10094000CAF58054A64200DC344644E04FEA083140
:100950004FF480525846FFF74CFF002508E00AEBA1
:1009600005001BF80000FF2800D003E0681C85B2DA
:10097000A542F4DB00BFA54216DA4046FFF7B2FFFE
:10098000002507E019F8050005EB0A010BF8010046
:10099000681C85B2A542F5DB4FEA08314FF480525E
:1009A0005846FFF77CFF04E0224639464846FFF7E9
:1009B00076FFA64200D10FE008F101084FF0000ACF
:1009C000A1442744301B86B2B6F5805F02DD4FF4A8
:1009D000805400E03446B9E700BFBDE8F09F10B591
:1009E000FFF7EFFEFFF72AFF002015490860C72038
:1009F000FFF7E6FD01201349C1F8B802FFF71EFF1B
:100A000010BD10B500200E490860B920FFF7D8FDD1
:100A100001200C49C1F8B802032002F0C7F910BD4B
:100A200010B5002006490860AB20FFF7C9FD012082
:100A30000449C1F8B802032002F0B8F910BD000063
:100A4000B882404200804042000402400018024048
:100A50001400002066653A25780D0A00BC030020CA
:100A60000020FE490860091D0860091D0860091D75
:100A70000860FA4924310860091D0860091D0860F2
:100A8000F748F649383108600020091D08607047B2
:100A900001460020012900D011B9F24B197000E085
:100AA000262070470146ED4A121D106820F0FF0015
:100AB00008431060704770B5044606E0E7483430DC
:100AC000056805F0450000B100E0F7E700BF04202D
:100AD00004F004FB20B1042004F00BFB032070BDE4
:100AE000012004F0FBFA20B1012004F002FB0120F8
:100AF000F5E7DA4810300068A04201D01020EEE798
:100B000040F2FF5004F0F5FAD44814300068082190
:100B10000840C0B2E3E72DE9FC4107460D46002638
:100B200000240020009001900820CF490860102088
:100B30004860402088600020C8604FF480600861F1
:100B4000084604F038FA1020FFF7B5FF044614B148
:100B50002046BDE8FC81C54800880004C249086001
:100B600037204860402088600020C8604FF48060D3
:100B70000861084604F01FFA3720FFF79CFF04467F
:100B80000CB12046E5E74FF0FF30B9490860082076
:100B90004860302088600220C86000200861012081
:100BA0004861084604F033FA0020AF49086033205A
:100BB0004860402088600020C8604FF48060086171
:100BC000084604F0F8F93320FFF775FF04460CB12E
:100BD0002046BEE70DE04FF4001004F07FFA40B16C
:100BE0009E48803000684DF82600761C022E00D307
:100BF00007E09A483430006840F22A610840002833
:100C0000E9D000BF082004F069FA20B1082004F000
:100C100070FA04209DE7022004F060FA20B102205F
:100C200004F067FA022094E7202004F057FA20B17C
:100C3000202004F05EFA06208BE74FF4007004F0E9
:100C40004DFA28B14FF4007004F053FA072080E702
:100C500040F2FF5004F04DFA00980006009901F4AC
:100C60007F4140EA0120009901F47F0140EA112010
:100C7000009940EA1160686001980006019901F44A
:100C80007F4140EA0120019901F47F0140EA1120EF
:100C9000019940EA1160286020465AE77CB5054674
:100CA000002400200090019000260DB1022600E0F3
:100CB00000266A481430006800F0007008B10E2069
:100CC0007CBD6A49098888B26946FFF724FF04465B
:100CD0000CB12046F4E7019800F4802060B363482B
:100CE0000088000460490860372048604020886020
:100CF0000020C8604FF480600861084604F05BF98A
:100D00003720FFF7D8FE04460CB12046D8E75648F6
:100D10000660062054494860402088600020C86072
:100D20004FF480600861084604F045F90620FFF79B
:100D3000C2FE04462046C3E72520C1E770B504463D
:100D400000254C480078032802D12725284670BD8D
:100D50004848007838B147480078012803D0454812
:100D60000078022819D1B4F5805F02D127252846E2
:100D7000EDE7E0B2FFF792FF054675B93748001D71
:100D8000006820F4C0503549091D08600846006815
:100D9000204308600846006808602846D7E710B579
:100DA00004463148046007202F494860402088608D
:100DB0000020C8604FF480600861084604F0FBF82A
:100DC0000720FFF778FE10BDF0B501460020002295
:100DD000284B1B7881F85630244B1B88A1F85430DF
:100DE000254B1B681A0E93090B70C2F383034B70DB
:100DF00002F003038B70204B1B68C3F30742CA70D9
:100E00001D4B1B88C3F307220A711B4B1A784A71CA
:100E10005B681A0E1301CB80174B5B68C3F3074264
:100E2000CB8843EA1213CB8002F00F030B72124BF4
:100E30009B88C3F30722D3094B72C2F380138B72D2
:100E4000C2F34013CB72C2F300130B7300234B7336
:100E5000084B1B78C3B1074B1B780FE0002C0140F7
:100E6000FF07C00020000020D81300201C00002035
:100E7000EC1300201800002004140020012B03D0E4
:100E8000FE4B1B78032B4FD193071B0D0B61FC4BC3
:100E90001A790B6943EA82030B61F94B9B681A0EBE
:100EA0000B6943EA92130B61C2F3C2030B7502F0A4
:100EB00007034B75F24B9B68C3F3074253098B75CD
:100EC000C2F38203CB7593075B0F0B76EC4B1B8948
:100ED000C3F307220B7E43EAD2130B760B695B1C2C
:100EE0000024C1E912340B7E9B1C012606FA03F391
:100EF000DE17D1E91245A4FB037C05FB03C304FB09
:100F00000633C1E912730C7A0123A3400B65002458
:100F1000D1E912560B6DA5FB037C06FB03C305FB51
:100F20000433C1E912732CE0D44B1B78022B28D177
:100F3000D34B1A7993069B0A0B61D14B9B681A0E0F
:100F40000B6943EA02230B61CD4B9B68C3F3074255
:100F50000B6913430B61CA4B1B89C3F307220B694F
:100F60005B1C4FF40074A3FB043566000027A3FB51
:100F7000064C05FB06C503FB0753C1E9124373107A
:100F80000B65C2F3801301F8193F93065B0E4B709B
:100F9000BB4B1A7A4B7843EAD2134B7002F07F03B3
:100FA0008B70B74BDB681A0ED309CB70C2F34113B9
:100FB0000B71C2F382034B7193071B0F8B71B04B04
:100FC000DB68C3F307428B7943EA92138B71C2F358
:100FD0004013CB7100230B7202F001034B72A84B3C
:100FE0009B89C3F30722D3098B72C2F38013CB72A0
:100FF000C2F340130B73C2F300134B73C2F38103AC
:101000008B7302F00303CB739D4B1A7B53080B7455
:1010100001234B749B4B1B681A0ECA741939994BE8
:101020001B68C3F307421402CC85964B1B88C3F39D
:101030000722CB8D1343CB85924B1A7814060C6391
:101040005B681A0E0B6B43EA02440C638D4B5B68C2
:10105000C3F307420B6B43EA02240C63894B9B8862
:10106000C3F307220B6B13430B63864B1A793423AC
:101070005A54844B9B681A0E35235A54814B9B68F3
:10108000C3F3074214068C637E4B1B89C3F307220C
:101090008B6B43EA02448C637A4B1A7A8B6B43EA7C
:1010A00002248C63774BDB681A0E8B6B13438B63C4
:1010B000744BDB68C3F307423C235B5C43EA1214C6
:1010C0003C235C5413071C0DCC876E4B9B89C3F3E8
:1010D0000722CB8F1343CB876A4B1A7B54084023DC
:1010E0005C54012441235C54F0BD70B500264FF4DC
:1010F000803505E06448046804F0450000B103E071
:10110000281EA5F10105F5D100BF15B104F00400BA
:1011100028B10326042003F0ECFF304670BD012007
:1011200003F0DCFF18B10126012003F0E2FF40F2DA
:10113000FF5003F0DEFF3046F0E72DE9F0410546B1
:101140000E464FF0000805E04F48076807F04500DD
:1011500000B100E0F8E700BF042003F0BFFF28B1B2
:10116000042003F0C6FF0320BDE8F081012003F056
:10117000B5FF20B1012003F0BCFF0120F4E7424895
:1011800024380068A84201D01020EDE740F2FF505B
:1011900003F0AFFF3C482038046804F4604018B9FD
:1011A000200C30804046DFE704F4005008B11320E3
:1011B000DAE704F4804008B11020D5E704F40040D9
:1011C00008B10F20D0E74046CEE738B50024012013
:1011D000009003F0EAFE10B92524204638BD2748C8
:1011E0000078042825D000202849086002204860A3
:1011F000C02088600020C8604FF480600861084605
:1012000003F0D9FEFFF771FF04460CB12046E5E775
:101210001D48203800681B4908601B481C380068BE
:101220004860194818380068886017481438006802
:10123000C8601248007858B110480078012807D0DB
:101240000E480078062803D00C480078022821D1E7
:1012500000200E490860032048604020886000207C
:10126000C8604FF480600861084603F0A4FE694638
:101270000320FFF762FF044664B109E01800002074
:101280000414002014140020342C0140D813002032
:101290002046A3E7FE480078032816D1BDF80000D9
:1012A0000004FC490860032048604020886000205A
:1012B000C8604FF480600861084603F07CFEFFF7C9
:1012C00014FF04460CB1204688E7F1480078042852
:1012D0002AD0BDF80000F0490860BDF80000000405
:1012E000EC49086009204860C02088600020C86080
:1012F0004FF480600861084603F05DFEFFF7F5FEDD
:1013000004460CB1204669E7E4480068E4490860F7
:10131000E248001D00684860E048083000688860C6
:10132000DE480C300068C860002057E710B506E0C2
:10133000DA482030046804F0450000B100E0F7E727
:1013400000BF042003F0CAFE20B1042003F0D1FE48
:10135000032010BD40F2FF5003F0CBFE0020F8E761
:1013600070B500264FF4803506E0CC482030046884
:1013700004F0450000B103E0281EA5F10105F4D1F9
:1013800000BF15B104F0040028B10326042003F0C7
:10139000B0FE304670BD04F0400018B10026402079
:1013A00003F0A7FE3046F5E770B500254FF4803412
:1013B00004E0802003F092FE00B103E0201EA4F1BF
:1013C0000104F6D100BF0CB9032070BD40F2FF50FC
:1013D00003F08FFE2846F8E72DE9F04700270024A8
:1013E00000260025A046A1467620AE4908750020BB
:1013F000086048608860C8600861084603F0B1FD75
:10140000032003F0CEFDA5481038006840F480703A
:10141000A2491039086000BF12E000209D49086011
:1014200048608860C8604FF480600861084603F037
:10143000C2FDFFF7B9FF044604B903E0781CC7B248
:101440004A2FEADB00BF14B12046BDE8F0874FF415
:10145000D5709049086008204860402088600020CE
:10146000C8604FF480600861084603F0A4FDFFF7F0
:1014700077FF044624B90120854908704FF0804960
:1014800000208449086037204860402088600020A0
:10149000C8604FF480600861084603F08CFD372077
:1014A000FFF709FB0446002C4BD134E000207949BA
:1014B000086037204860402088600020C8604FF4F2
:1014C00080600861084603F076FD3720FFF7F3FAE5
:1014D00004460CB12046B8E7734849EA00006D495C
:1014E000086029204860402088600020C8604FF4D0
:1014F00080600861084603F05EFDFFF717FF0446B1
:101500000CB12046A1E765480668012080EAD67044
:1015100080F001086D1CB8F1000F03D14FF6FF7089
:101520008542C3D34FF6FF70854202D31B24204669
:101530008BE706F08040061E32D002205449087026
:101540002EE01CE0594853490860012048604020C3
:1015500088600020C8604FF480600861084603F08E
:101560002AFDFFF7E3FE04460CB120466DE74B4829
:101570000668012080EAD67080F001086D1CB8F181
:10158000000F03D14FF6FF708542DBD34FF6FF709B
:10159000854202D31B24204657E703203C490870AC
:1015A000204652E73EB5002400250121404802F0C4
:1015B000BDF80121C80202F013F90121C80202F0AE
:1015C00064F94FF4F850019002208DF808008DF86E
:1015D000090000208DF80A0001208DF80B0001A9F8
:1015E000344801F005FE0420019001A9324801F0C1
:1015F000FFFD0C2208212F4801F085FE0C22092155
:101600002C4801F080FE0C220A212A4801F07BFEC2
:101610000C220B21274801F076FE0C2211462548AA
:1016200001F071FE0C220221234801F06CFE002122
:101630004FF4006002F029F9FFF712FA31208DF81B
:10164000000000208DF801008DF8020001208DF8C7
:101650000300684601F0DBFCFFF7BEFE044614B948
:10166000FFF7B3FD04461CB91448FFF7ADFB044671
:1016700034B91249B1F854100804FFF790FB04463E
:1016800024B94FF40060FFF759FB0446E4B117E0BA
:1016900018000020D81300201C000020142C01404A
:1016A00004140020C0130020000010800080FF8080
:1016B0000C00400000080240000C024028140020EA
:1016C000FE480078032812D1FD4890F8560020B15A
:1016D000FB4890F85600012801D1022500E00025C2
:1016E0002846FFF7DFF90020FFF7D2F9044620462D
:1016F0003EBD10B5002003F054FC002010BD70B5B5
:1017000090B004460E46154600BFEE4803F035FE85
:101710000028FAD1EB4803F007FD4FF0006001907C
:10172000E9480290039404950020059006904FF438
:1017300080600790800008908000099000200A9047
:101740004FF440300B9004200C9003200D904FF488
:1017500000000E9080100F9001A9DA4803F086FD7A
:101760002021D84803F0D2FD0121D64803F0B8FD6E
:1017700010B070BD0146002002E04910421CD0B2FA
:101780000129FAD170472DE9F84F8146174698464E
:101790000A9C4FF0000AD3464D464FF0FF36B9F190
:1017A000000F02D12620BDE8F88F0020C649543929
:1017B0000860C2480078022805D10402780A40EA8D
:1017C000C8574FEA68280020C04988604860401E1A
:1017D0000860012048610020C8600861084603F0E5
:1017E00016FCB9486C38006800F0007008B10E2093
:1017F000D9E7002C21DDB4F5006F1EDC601E20400F
:10180000D8B92046FFF7B6FF0090B1480460102019
:10181000AF494860402088600020C8604FF4806075
:101820000861084603F0C7FB1020FFF744F9824621
:10183000BAF1000F03D05046B5E72620B3E7009871
:101840000001A2498860084644604FF0FF300860FC
:10185000012048610220C86000200861084603F0AA
:10186000D6FB9B480760112099494860402088605A
:101870000020C8604FF480600861084603F09BFBBD
:101880001120FFF718F98246BAF1000F01D0504637
:1018900089E79048007800285AD1FEF73CFD17E010
:1018A0004FF4004003F01AFC70B14FF0000B05E05C
:1018B0008548006845F82B000BF1010BBBF1080FC0
:1018C000F6D32035844E03E00EB904206BE7761E74
:1018D0007D484C38006840F22A6108400028DFD07B
:1018E000082003F0FBFB20B1082003F002FC0420D9
:1018F00059E7022003F0F2FB20B1022003F0F9FBCC
:10190000022050E7202003F0E9FB20B1202003F063
:10191000F0FB062047E74FF4007003F0DFFB28B12F
:101920004FF4007003F0E5FB07203CE703E0664856
:10193000006828602D1D4FF4001003F0CFFB002835
:10194000F5D1FEF7EAFC40F2FF5003F0D2FB39E09C
:1019500060480078012835D100206049087060494E
:1019600008706049087058484438006840F22A31CD
:10197000084355494439086053485438006840F0DA
:101980000800514954390860002221464846FFF7B3
:10199000B6FE00E0761E4B485838006800F0006044
:1019A00038B95048007820B94C48007808B9002E62
:1019B000F0D10EB90420F6E64848007810B1474847
:1019C00090F800A05046EEE62DE9FF5F17469846D6
:1019D000DDE90E464FF00009CA464FF0FF35424997
:1019E000009808600020384954390860334800786E
:1019F000022805D10402780A40EAC8574FEA68284D
:101A00000020324988604860401E0860012048611B
:101A10000020C8600861084603F0F9FA2A486C38CB
:101A2000006800F0007018B10E2004B0BDE8F09F0F
:101A3000002C21DDB4F5006F1EDC601E2040D8B9FB
:101A40002046FFF797FE8346214804601020204976
:101A50004860402088600020C8604FF480600861C2
:101A6000084603F0A8FA1020FFF725F88146B9F1DF
:101A7000000F03D04846D8E72620D6E7012E6ED9BE
:101A800006FB04F0B0F1007F01D32620CDE74FEA3A
:101A90000B100E49886006FB04F048604FF0FF30E1
:101AA0000860012048610220C860002008610846E3
:101AB00003F0ADFA06480760122017E01800002076
:101AC0002814002058640240802C0140EC130020B0
:101AD000D813002020000020FFFF7F0022000020FC
:101AE000210000202300002024000020F949486044
:101AF000402088600020C8604FF48060086108467C
:101B000003F059FA1220FEF7D6FF8146B9F1000F13
:101B100001D0484689E7F048007800287ED1FEF7DA
:101B2000FAFB1EE04FF4004003F0D8FAA0B14FF0EA
:101B3000000A07E0E9480068E949096841F82A0015
:101B40000AF1010ABAF1080FF4D3E5480068203021
:101B5000E3490860E34D04E015B9042065E7AEE011
:101B60006D1EDE484C38006840F22A3108400028DB
:101B7000D8D0082003F0B2FA20B1082003F0B9FA57
:101B8000042052E7022003F0A9FA20B1022003F05A
:101B9000B0FA022049E7202003F0A0FA20B120206B
:101BA00003F0A7FA062040E74FF4007003F096FA1E
:101BB00028B14FF4007003F09CFA072035E709E0E4
:101BC000C6480068C64909680860C5480068001D25
:101BD000C34908604FF4001003F080FA0028EFD1E9
:101BE0004FF4807003F07AFA20B3BF48007838B120
:101BF000BD480078012803D0BB480078022819D1DD
:101C00000020B44908600C20486040208860002013
:101C1000C8604FF480600861084600E011E003F0FE
:101C2000CAF90C20FEF747FF8146B9F1000F01D039
:101C30004846FAE6FEF771FB40F2FF5003F059FA0E
:101C40003DE0A5480078012839D10020A749087057
:101C50000120A74908700020A64908709F48443811
:101C6000006840F22A3108439C49443908609B4887
:101C70005438006840F0080098495439086006FB61
:101C800004F100220098FFF73AFD00E06D1E9A482B
:101C9000006800F0006008B9002DF7D10DB90420EC
:101CA000C3E600BF9348007818B990480078002830
:101CB000F8D08E48007810B18C4890F800904846D3
:101CC000B3E61CB504460020019000908B480088C4
:101CD0000004804908600D20486040208860002092
:101CE000C8604FF480600861084603F064F97B48DF
:101CF0004C380068009003E078484C380068009049
:101D0000009800F045000028F6D0012003F0E6F925
:101D100020B1012003F0EDF901201CBD042003F0E7
:101D2000DDF920B1042003F0E4F90320F5E76B4866
:101D3000703800680D2801D01020EEE740F2FF5007
:101D400003F0D7F965486C38006801900198C0F33A
:101D5000432020700020E0E72DE9FF5F86B01746A2
:101D60009846149D0026002005900490002481468A
:101D70000390824602900195DDF818B0DDF818B0A6
:101D8000BBF1000F03D126200AB0BDE8F09F002070
:101D90005249543908605A4988604860401E0860BA
:101DA000012048610020C8600861084603F02FF94F
:101DB0004A486C38006800F0007008B10E20E3E774
:101DC00049480078022805D10502780A40EAC85738
:101DD0004FEA6828002D1FDDB5F5006F1CDC681E7A
:101DE0002840C8B92846FFF7C5FC0590394805606A
:101DF000102038494860402088600020C8604FF4B7
:101E000080600861084603F0D6F81020FEF753FE04
:101E100006461EB13046B7E72620B5E737480088AA
:101E200000042C4908600D20486040208860002094
:101E3000C8604FF480600861084603F0BCF80D20CC
:101E4000FEF739FE06460EB130469DE723486C3852
:101E5000006803904FF0FF341CE0641E27480088A0
:101E600000041C4908600D20486040208860002064
:101E7000C8604FF480600861084603F09CF80D20AC
:101E8000FEF719FE06460EB130467DE713486C3862
:101E900000680390039800F4807008B9002CDCD12E
:101EA0000CB9292070E70B480760182009494860E1
:101EB000402088600020C8604FF4806008610846B8
:101EC00003F079F81820FEF7F6FD0646D6B1304645
:101ED0005AE70000D813002020000020802C014089
:101EE00024000020FFFF7F001800002022000020B7
:101EF0002100002023000020006402401C0000207C
:101F0000EC1300200020F849087005980001F749FB
:101F10008860084645604FF0FF3008600120486146
:101F20000020C8600861084603F071F84FF0FF34E4
:101F3000EF48007800287CD1FEF7EDF943E04FF43C
:101F4000804003F0CBF8C8B30198A0EB090020282B
:101F500021D20198A0EB090000F0030020B90198FC
:101F6000A0EB0900800804E00198A0EB09008008BC
:101F7000401C02904FF0000A09E0DE49DBF8000047
:101F800008600AF1010A0BF1040B09F10409029837
:101F90008245F2D30FE04FF0000A05E05BF82A001B
:101FA000D44908600AF1010ABAF1080FF6D30BF11F
:101FB000200B09F120096FF0404404E0FFE70CB961
:101FC0000420E1E6641ECB484C38006840F21A61F8
:101FD00008400028B3D0082003F080F820B1082082
:101FE00003F087F80420CFE6022003F077F820B151
:101FF000022003F07EF80220C6E6102003F06EF8FF
:1020000020B1102003F075F80520BDE64FF40070F4
:1020100003F064F830B14FF4007003F06AF8072061
:10202000B2E606E0FEF779F940F2FF5003F061F8FE
:1020300043E0AF48007801283FD10020AE49087046
:10204000A9490870AD490870AA484438006840F2B0
:102050001A310843A74944390860402229460698A6
:10206000FFF74DFBA3485438006840F00800A14931
:102070005439086000E0641EA148006800F0006068
:1020800008B9002CF7D11CB9FFF78CFA04207BE6C5
:102090004FF0FF3400E0641E9848007820B996485D
:1020A000007808B9002CF6D10CB904206CE69248EF
:1020B000007810B19048007866E640F2FF5003F0D7
:1020C00018F804A8FFF7FDFD064603E004A8FFF793
:1020D000F8FD06463EB99DF810000728F6D09DF899
:1020E00010000628F2D030464EE62DE9FF5F84B09E
:1020F000DDE912470026002003900290002580466B
:102100008146019007FB04FBDDF810A0DDF810A06C
:10211000BAF1000F03D1262008B0BDE8F09F0020DF
:10212000744954390860714988604860401E0860ED
:10213000012048610020C8600861084602F067FF7E
:102140006C486C38006800F0007008B10E20E3E7BE
:102150006C480078022808D10402DDE90601400A33
:1021600040EAC1504912CDE90601002C1FDDB4F54B
:10217000006F1CDC601E2040C8B92046FFF7FAFA49
:1021800003906148046010205F49486040208860E7
:102190000020C8604FF480600861084602F00BFF21
:1021A0001020FEF788FC06461EB13046B4E7262014
:1021B000B2E7012F6FD907FB04F0B0F1007F01D324
:1021C0002620A9E74F48007838B14E48007801280A
:1021D00003D04C48007802282DD14C4800880004D8
:1021E0004949086037204860402088600020C86066
:1021F0004FF480600861084602F0DDFE3720FEF7EC
:102200005AFC06460EB1304686E73F480760172065
:102210003D494860402088600020C8604FF48060DD
:102220000861084602F0C7FE1720FEF744FC064688
:102230000EB1304670E734490698086019204860AE
:10224000402088600020C8604FF480600861084624
:1022500002F0B1FE1920FEF72EFC06460EB1304604
:102260005AE7039800012149886007FB04F04860A1
:102270004FF0FF300860012048610020C86008610D
:10228000084602F0C4FE1A480078002872D1451EA4
:10229000FEF741F854E0F8E04FF4804002F01EFFF2
:1022A000B0B3ABEB0800202833D2ABEB080000F052
:1022B000030018B9ABEB0800800803E0ABEB0800A3
:1022C0008008401C01904FF0000909E00949DAF844
:1022D0000000086009F101090AF1040A08F1040884
:1022E00001988145F2D324E021000020EC13002066
:1022F00020000020802C014022000020230000202C
:102300000064024018000020D81300201C000020A8
:1023100012E04FF0000905E05AF82900F74908607B
:1023200009F10109B9F1080FF6D30AF1200A08F101
:1023300020086FF0404503E00DB90420ECE66D1E67
:10234000EE484C38006840F21A3108400028A3D00B
:10235000082002F0C3FE20B1082002F0CAFE0420CB
:10236000DAE6022002F0BAFE28B1022002F0C1FE35
:102370000220D1E640E0102002F0B0FE20B1102093
:1023800002F0B7FE0520C7E64FF4007002F0A6FE8B
:1023900028B14FF4007002F0ACFE0720BCE64FF409
:1023A000807002F09BFE00B3D548007838B1D44865
:1023B0000078012803D0D2480078022815D10020E7
:1023C000D04908600C204860402088600020C86028
:1023D0004FF480600861084602F0EDFD0C20FEF726
:1023E0006AFB06460EB1304696E6FDF796FF40F2D0
:1023F000FF5002F07EFE48E0C3480078012844D137
:102400000020C24908700120C14908700020C1495C
:102410000870BA484438006840F21A310843B74996
:102420004439086007FB04F140220498FFF767F97C
:10243000B2485438006840F00800B0495439086088
:102440004FF0FF3500E06D1EB348006800F00060FB
:1024500008B9002DF7D11DB9FFF7A4F804205BE6F9
:102460004FF0FF3500E06D1EAA48007820B9A7485C
:10247000007808B9002DF6D10DB904204CE6A34828
:10248000007810B1A148007846E640F2FF5002F013
:1024900030FE02A8FFF715FC064603E002A8FFF78E
:1024A00010FC06463EB99DF808000728F6D09DF8B6
:1024B00008000628F2D030462EE610B54FF48070A2
:1024C00002F00CFE88B392480078012814D1002055
:1024D0008C4908600C204860402088600020C8605B
:1024E0004FF480600861084602F065FD0C20FEF79D
:1024F000E2FA8649087002E00020844908707F48AB
:102500004838006840F480707C4948390860081DEC
:1025100000684CF23A318843784944390860012018
:102520007C4908707948007810BDFFE7022002F06E
:10253000D5FD78B1022002F0DCFD70484438006817
:102540004CF23A3188436D494439086002206F49A2
:102550000870E9E7082002F0C1FD78B1082002F018
:10256000C8FD6648443800684CF23A3188436349F4
:1025700044390860042065490870D5E7202002F03E
:10258000ADFD78B1202002F0B4FD5C48443800680D
:102590004CF23A31884359494439086006205B4976
:1025A0000870C1E7102002F099FD78B1102002F008
:1025B000A0FD5248443800684CF23A3188434F49F4
:1025C00044390860052051490870ADE74FF40070A8
:1025D00002F084FD80B14FF4007002F08AFD47489C
:1025E000443800684CF23A31884344494439086021
:1025F00007204649087097E7002095E710B5FFF7D8
:102600005CFF10BD70B50446002514B92625284688
:1026100070BD4248008800043A4908600D204860B7
:10262000402088600020C8604FF480600861084640
:1026300002F0C1FC0D20FEF73EFA05460DB128461A
:10264000E6E72E486C38006820602846E0E708B5C9
:10265000002000906846FFF7D5FF08B1FF2008BDB5
:102660000098C0F34320FAE72DE9FE4F83460C465D
:10267000914600200290002625462C46700240EA32
:10268000D5566D020BF00300F0B14FF0000A18E0D0
:102690004FF4007000904FEA4A20471946EBE07370
:1026A0003A461F48FFF76FF802904FF400721C493A
:1026B000584609F0EAF80BF5007B0AF1010000F03A
:1026C000FF0ACA45E4DB16E0B9F1010F09D14FF466
:1026D00000702A46334600905846FFF754F802909F
:1026E00009E04FF400702A463346CDE90009584608
:1026F000FFF76AF902900298BDE8FE8F802C014036
:1027000018000020D8130020200000202200002004
:102710002100002023000020006402401C00002053
:10272000801400202DE9FE4F81460C469246002081
:102730000290002625462C46700240EAD5566D02CE
:1027400009F00300F0B14FF0000B18E04FF40072F5
:102750004946194809F099F84FF4007000904FEA83
:102760004B20471946EBE0733A461348FFF7F4FA5B
:10277000029009F500790BF1010000F0FF0BD34541
:10278000E4DB16E0BAF1010F09D14FF400702A46DC
:10279000334600904846FFF7DFFA029009E04FF415
:1027A00000702A463346CDE9000A4846FFF79DFCF3
:1027B00002900298BDE8FE8F8014002010B540F210
:1027C0002551594801F0E6FA00B3574801F020FAC4
:1027D000C4B25648008800F40040B8B95348008895
:1027E000B0F5C87F13DA0021514801F013FC4F48BF
:1027F000008818B901214E4801F04CFC4B48018873
:102800000088401C494A10804A48445405E0474823
:10281000008840F400404549088010BD10B588B0DC
:1028200004460121084600F081FF0121480400F020
:10283000C6FF3D4801F0CEF8072202213E4800F0D5
:1028400062FD072203213C4800F05DFD0C2005904D
:1028500002208DF818008DF8190000208DF81A005C
:1028600001208DF81B0005A9334800F0C1FC01943C
:102870000020ADF80800ADF80A00ADF80C00ADF886
:1028800010000C20ADF80E0001A9274801F009F94D
:102890000121254801F08DF9012240F225512248FD
:1028A00001F03DFA26208DF81C0001208DF81D0056
:1028B00000208DF81E0001208DF81F0007A800F0F1
:1028C000A6FB42F2CF0140F2E73000F04EF80020C4
:1028D000164908800021164801F0DCFB08B010BD45
:1028E0000FB438B505A800901448009A049908F070
:1028F000C9FD00200090114808F0A8FF85B200240F
:102900000DE000BF4021084801F02EFA0028F9D060
:102910000A48015D044801F077F9601C84B2AC42BA
:10292000EFDB38BC5DF814FB0044004028000020B9
:102930000014004010180020000002408016002003
:1029400010B501211C4801F0D4FF68B11B48008874
:1029500040F40040194908800121174801F0DAFFCE
:102960000021154801F096FB10BD7FB505460C46C9
:102970000121202000F023FF0195ADF80040002048
:10298000ADF80800ADF8020069460B4801F0F9FA0D
:1029900001221146084801F095FF37208DF80C0000
:1029A00001208DF80D008DF80E008DF80F0003A8A2
:1029B00000F02DFB7FBD0000001400402800002027
:1029C000F8B504460D4617461E468DF800408DF8B2
:1029D00001508DF802708DF803606946002002F006
:1029E000D9FEF8BDF8B504460D4617461E468DF8CB
:1029F00002708DF801508DF800608DF80340694633
:102A0000002002F065FFF8BD3EB541F6FF740121DC
:102A1000080700F0D4FE012003F0A1FC002003F021
:102A200015FB45F25001884231D0012000F01BFD1A
:102A300004E0601C84B20A2000F000FA412000F09B
:102A4000CBFC0028F5D00CB901203EBD4FF48070BE
:102A500000F00AFE012000F022FE7F200190FF20FE
:102A6000029000200090684602F0F9FD0023382211
:102A70003B211720FFF7A4FF012305221146142054
:102A8000FFF7B0FF45F25001002003F0D2FA00201A
:102A9000DBE7F0B587B004460D4616461F46002119
:102AA0004FF4807003F054F88DF800508DF80160F9
:102AB0008DF8027000208DF803008DF810404FF063
:102AC00080400390002002900098019001AA4FF4EA
:102AD0008071002002F085FF4FF4805003F098FBD6
:102AE0004FF4003003F027FC0121080303F024FB1E
:102AF0000121080203F02CF84FF40030059000206B
:102B00008DF8180008208DF8190001208DF81A00A2
:102B100005A803F09FFB2920354908700220487062
:102B200088700120C870084600F071FA07B0F0BD47
:102B30007CB505460C46002003F08FF8284603F0CC
:102B400067F8204603F079F84FF4804003F060FB0B
:102B50004FF4800003F0EFFB0121880303F0ECFA4F
:102B6000012003F07AF84FF48000009000208DF8E7
:102B7000040008208DF8050001208DF80600684645
:102B800003F068FB03201A4908700220487088701F
:102B90000120C870084600F03AFA7CBD10B54FF429
:102BA000807003F0F8FA012805D1000203F004FB5D
:102BB00010A008F079FC4FF4003003F0BCFB10BD0E
:102BC00010B54FF4806003F0E6FA01280AD18002C4
:102BD00003F0F2FA0A48006808B9012000E000207A
:102BE000074908604FF4800003F0A5FB10BD00000A
:102BF0002A000020414C41524D2041210D0A000085
:102C0000A882424210B588B004460121022000F09B
:102C10008DFD0121880400F0D2FD07220A215148D0
:102C200000F071FB07220B214E4800F06CFB4FF4C3
:102C30004060069002208DF81C008DF81D000020D9
:102C40008DF81E0001208DF81F0006A9454800F0F0
:102C5000CFFA02940020ADF80C00ADF80E00ADF8EC
:102C60001000ADF814000C20ADF8120002A93E4887
:102C700000F017FF01213C4800F09BFF012240F2C9
:102C80002551394801F04BF827208DF80400032026
:102C90008DF8050002208DF8060001208DF8070050
:102CA00001A800F0B4F908B010BD10B52F480068B5
:102CB00008B9012000E000202C49086040F22551AD
:102CC000294801F067F810B3274800F0A1FFC4B20B
:102CD0002748008800F40040C8B92548008800F45F
:102CE000804060B13A2C03D000202149088020E0C8
:102CF0001F48008840F400401D49088019E03A2C24
:102D000006D11B48008840F480401949088010E033
:102D100017480088C0F30D0016490C541448008869
:102D2000401C1349088008460088C72801DD0020A0
:102D3000088010BD70B50446062221460D4808F0F3
:102D400059FD60B900200A4908800A4808F07EFD54
:102D500005462946074808F0DDFD002070BD01202A
:102D6000FCE700000004024000480040A482424208
:102D70002E000020A019002010B504466FF00400BA
:102D800000F092F9E11704EB5171C1F3C701394A20
:102D900011701046007800EB4001C1EBC0104FF6F7
:102DA000FF7101EAC0003449088010BD0146314A74
:102DB00012784A434FF0E0235A6100229A611A4682
:102DC000126942F001021A6100BF4FF0E02210695F
:102DD00000F001021AB100F48032002AF5D04FF061
:102DE000E022126922F001024FF0E0231A61002272
:102DF0009A6170470146204A12884A434FF0E02307
:102E00005A6100229A611A46126942F001021A615F
:102E100000BF4FF0E022106900F001021AB100F487
:102E20008032002AF5D04FF0E022126922F0010230
:102E30004FF0E0231A6100229A61704770B5044692
:102E40004FF4077094FBF0F0C6B24FF4077094FB98
:102E5000F0F100FB114085B205E04FF40770FFF779
:102E6000C9FF701EC6B2002EF7D115B12846FFF774
:102E7000C1FF70BD300000203200002000BF70474D
:102E800000BF4C4A128802F04002002AF9D0C2B2B8
:102E9000484B9A80704710B588B004460121084617
:102EA00000F044FC0121102000F09AFC07220921C7
:102EB000414800F028FA07220A213F4800F023FA8F
:102EC0004FF4C060069002208DF81C008DF81D00A4
:102ED00000208DF81E0001208DF81F0006A936483D
:102EE00000F086F902940020ADF80C00ADF80E0059
:102EF000ADF81000ADF814000C20ADF8120002A9D6
:102F00002C4800F0CEFD01212A4800F052FE01229B
:102F100040F22551274800F002FF25208DF80400DB
:102F200003208DF805008DF8060001208DF80700BC
:102F300001A800F06CF808B010BD10B540F22551A2
:102F40001C4800F027FF10B31A4800F061FEC4B21D
:102F50001A48008800F40040C8B91848008800F4F6
:102F6000804060B10A2C03D000201449088020E082
:102F70001248008840F400401049088019E00D2CE8
:102F800006D10E48008840F480400C49088010E0CB
:102F90000A480088C0F30D0009490C54074800880E
:102FA000401C0649088008460088C72801DD00202B
:102FB000088010BD001001400000024038000020D1
:102FC000681A00200948804709480047FEE7FEE7E5
:102FD000FEE7FEE7FEE7FEE7FEE7FEE7FEE7FEE7C9
:102FE00004480549054A064B704700008D04000857
:102FF0008901000808C5012008CB012008C701206D
:1030000008C7012032490143324A1160704770B548
:10301000002100230F22C4781CB32E4C246804F432
:10302000E064C4F5E064C4F30721C1F10404E3B231
:103030000A4144789C40E1B28478144021430C0753
:10304000210E254C05786155047804F01F050124F4
:10305000AC4005786D11AD0005F1E025C5F80041E3
:1030600009E0047804F01F050124AC401B4D0678EC
:10307000761145F8264070BD194A0A400243154BA7
:103080001B1F1A60704739B1124A121D12680243A1
:10309000104B1B1D1A6006E00E4A121D1268824377
:1030A0000C4B1B1D1A607047042808D14FF0E0211B
:1030B000096941F004014FF0E022116107E04FF08F
:1030C000E021096921F004014FF0E022116170470D
:1030D0000000FA050CED00E000E400E080E100E013
:1030E00080FFFF1F10B504469848844208D1012193
:1030F000084600F086FB0021012000F082FB76E00C
:103100009348844208D10121022000F07AFB00217B
:10311000022000F076FB6AE08E48844208D101214B
:10312000042000F06EFB0021042000F06AFB5EE04A
:103130008948844208D10121082000F062FB002167
:10314000082000F05EFB52E08448844208D101214F
:10315000102000F056FB0021102000F052FB46E04A
:103160007F48844208D10121202000F04AFB002141
:10317000202000F046FB3AE07A48844208D1012141
:10318000402000F03EFB0021402000F03AFB2EE002
:103190007548844208D10121802000F032FB0021D3
:1031A000802000F02EFB22E07048844208D10121EB
:1031B000801500F026FB0021A01500F022FB16E090
:1031C0006B48844208D10121401500F01AFB002110
:1031D000601500F016FB0AE06648844207D1012121
:1031E000001500F00EFB0021201500F00AFB10BDB9
:1031F000F0B50A4600210023002400BF3DE0012570
:1032000005FA01F3156805EA03049C4234D1056808
:103210004F000326BE40B543056015794E00B5400A
:103220000668354305601579012D02D01579022D08
:1032300016D185684F000326BE40B5438560557999
:103240004E00B540866835438560456801268E404E
:10325000B5434560456896798E40B6B235434560C2
:10326000C5684F000326BE40B543C560D5794E0002
:10327000B540C6683543C560491C1029BFD3F0BDB1
:103280004FF6FF7101600021017141718171C171BF
:10329000704708B54FF480320092009A0A430092BA
:1032A000009AC261C161009AC261C2690092C2699A
:1032B000009208BD0246002013690B400BB10120AB
:1032C00000E0002070470146086980B2704702465E
:1032D000002053690B400BB1012000E00020704733
:1032E0000146486980B27047018370474183704747
:1032F0000AB1018300E04183704741617047426930
:103300004A4042617047F0B5002300244D07ED0E9E
:1033100002FA05F3CE1000F1200555F826504E07AD
:10332000F70E0F26BE40B543CF1000F1200646F839
:103330002750CE1000F1200555F8265045EA030429
:10334000CE1000F1200545F82640F0BD00000240F7
:103350000004024000080240000C0240001002403D
:103360000014024000180240001C024000200240ED
:103370000024024000280240F948006840F00100A3
:10338000F74908600020F64908310860F4480068F1
:10339000F4490840F2490860F348091D0860F34801
:1033A000EF4984310860F0481038091D0860EC4886
:1033B000006820F48020EA4908600020E8490C31C8
:1033C0000860E7498C31086070470021E44A921C8C
:1033D000117011460870704710B501460022002395
:1033E00000204A11012A02D1DD4C236808E0022A9C
:1033F00003D1DB4C7034236802E0D94C7434236869
:1034000001F01F02012494401C400CB1012000E097
:10341000002010BD38B5002000900024002500BF1A
:103420003120FFF7D9FF05460098401C0090009816
:10343000B0F5A04F01D0002DF2D03120FFF7CCFF26
:1034400008B1012400E00024204638BD01460020D8
:10345000C34A106820F0F80040EAC10010607047CD
:10346000C349086070470021BD4A70321170117065
:10347000012802D004280AD104E00121B84A7032A0
:10348000117005E00521B64A7032117000E000BFEE
:1034900000BF7047B7490860704770B5049C41EAA7
:1034A00082150126C6EB530645EA0645054345EA63
:1034B0000465AB4E361D356070BDAD49086670477A
:1034C000820142EA0172A64B84331A607047A84910
:1034D0008866704710B5830143EA016343EA0273CB
:1034E0009F4C8834236010BDA14908677047A049EC
:1034F000C864704702460020994B0833186820F0D2
:10350000EC6042EA01031843954B0833186070479A
:1035100002460020924B0833186820F0784042EAB7
:10352000010318438E4B0833186070470146002092
:103530008B4A0832106820F003000843106070477F
:1035400087480830006800F00C00704701460020F2
:10355000834A0832106820F0F0000843106070477A
:10356000014600207E4A0832106820F4E0500843EB
:103570001060704701460020794A0832106820F434
:10358000604040EAC10010607047F0B500210022A1
:103590000024022500260223714F08373F6807F0F8
:1035A0000C0121B1042905D0082937D105E0724F5B
:1035B000076036E0714F076033E0694F3F1D3F6899
:1035C000C7F38056664F3F1D3F6807F03F036EB15B
:1035D0006A4FB7FBF3F7DFF888C10CF1040CDCF895
:1035E00000C0CCF3881C07FB0CF40CE0624FB7FB67
:1035F000F3F7DFF86CC10CF1040CDCF800C0CCF37D
:10360000881C07FB0CF4564F3F1D3F68C7F301476A
:103610007F1C7D00B4FBF5F7076002E0564F0760A2
:1036200000BF00BF4E4F08373F6807F0F00109099F
:10363000534F7A5C0768D7404760494F08373F6867
:1036400007F4E051890A4E4F7A5C4768D74087609B
:10365000434F08373F6807F46041490B484F7A5C95
:103660004768D740C760F0BD002100F44072B2F552
:10367000407F0AD13A4A0832116821F4F811414AD0
:1036800002401143364A08321160354A70321268DE
:10369000C0F30B031A43324B70331A60704735493D
:1036A00044390860704733494039086070473649EB
:1036B0000860704701460020294A8C32106820F0CB
:1036C0001F004A1E1043264A8C3210607047014684
:1036D0000020234A8C32106820F4F8504A1E40EA39
:1036E00002201F4A8C3210607047014600201C4A9D
:1036F0008C32106820F44010084310607047014677
:103700000020174A8C32106820F4400008431060F3
:10371000704701460020124A8C32106820F4403075
:1037200008431060704719490860704739B10C4A66
:103730003032126802430A4B30331A6006E0084AFE
:10374000303212688243064B30331A607047F9B149
:10375000034A343212680243014B34331A601CE0CE
:1037600000380240FFFFF6EA10300024003000204D
:1037700000004742800E47420024F40000127A0005
:103780003A000020FFFCFF0F5C014742E011474276
:103790008F4A126882438E4B1A60704739B18C4A47
:1037A000121D126802438A4B1B1D1A6006E0884AEC
:1037B000121D12688243864B1B1D1A60704739B177
:1037C000834A0C3212680243814B0C331A6006E0C4
:1037D0007F4A0C32126882437D4B0C331A6070476B
:1037E00039B17B4A103212680243794B10331A60A8
:1037F00006E0774A103212688243754B10331A6024
:10380000704739B1724A243A12680243704B243B24
:103810001A6006E06E4A243A126882436C4B243BDD
:103820001A60704739B16A4A203A12680243684BFD
:10383000203B1A6006E0664A203A12688243644BD5
:10384000203B1A60704739B1614A1C3A1268024342
:103850005F4B1C3B1A6006E05D4A1C3A12688243CB
:103860005B4B1C3B1A60704739B1594A143A1268D5
:103870000243574B143B1A6006E0554A143A12684B
:103880008243534B143B1A60704739B1504A103A87
:10389000126802434E4B103B1A6006E04C4A103A45
:1038A000126882434A4B103B1A60704739B1484A4C
:1038B0001C3212680243464B1C331A6006E0444A2D
:1038C0001C3212688243424B1C331A60704739B174
:1038D0003F4A2032126802433D4B20331A6006E013
:1038E0003B4A203212688243394B20331A607047BA
:1038F00039B1374A243212680243354B24331A60F7
:1039000006E0334A243212688243314B24331A6072
:10391000704739B12E4A2C32126802432C4B2C339B
:103920001A6006E02A4A2C3212688243284B2C3354
:103930001A60704739B1264A303212680243244B6C
:1039400030331A6006E0224A303212688243204B3C
:1039500030331A607047012808D11D493C3109688D
:1039600041F008011A4A3C32116007E018493C3125
:10397000096821F00801164A3C321160704739B1DC
:10398000134A273A12780243114B273B1A7006E07C
:103990000F4A273A127882430D4B273B1A70704723
:1039A0000B484030006840F08070094940310860A1
:1039B000704701460020064A283A12680A400AB1B8
:1039C000012000E000207047014926390870704747
:1039D0003438024010B50446FA48844208D1012127
:1039E0001020FFF752FF00211020FFF74EFF57E095
:1039F000F548844209D101214804FFF735FF002131
:103A00004FF40030FFF730FF4AE0F048844209D11C
:103A100001218804FFF728FF00214FF48020FFF7E1
:103A200023FF3DE0EA48844209D10121C804FFF7A1
:103A30001BFF00214FF40020FFF716FF30E0E548A0
:103A4000844209D101210805FFF70EFF00214FF440
:103A50008010FFF709FF23E0DF48844208D10121ED
:103A60002020FFF712FF00212020FFF70EFF17E0B4
:103A7000DA48844209D101218807FFF7F5FE0021C9
:103A80004FF08040FFF7F0FE0AE0D548844207D1AE
:103A900001214005FFF7E8FE00216005FFF7E4FE85
:103AA00010BD2DE9FF4705460E460024A14600BF84
:103AB000A046B08900B100BF2C8A24F44054F0889D
:103AC00004432C82AC8941F20C608443B088318974
:103AD0000843718908430443AC81AC8A24F44074E0
:103AE000B0890443AC826846FFF74FFDB548854274
:103AF00002D0B948854202D1DDF80C9001E0DDF832
:103B00000890A88900F4004040B109EBC90000EB1F
:103B1000091031684900B0FBF1F707E009EBC90073
:103B200000EB091031688900B0FBF1F76420B7FBA6
:103B3000F0F004012009642101FB1078A88900F449
:103B4000004040B1322000EBC800B0FBF1F000F0C3
:103B50000700044308E0322000EB08106421B0FBAA
:103B6000F1F000F00F0004432C81BDE8FF874FF413
:103B70001651016000218180C18001810C214181A9
:103B800000218181704710B502460020108A20F480
:103B900070600B884C8823438C882343CC88234354
:103BA0001843108210BD0021018041808180C180B6
:103BB000704721B1828942F40052828104E08289F7
:103BC0004DF6FF731A4082817047028B02F47F42E8
:103BD0000283028B0A430283704721B1828942F437
:103BE0000042828103E08289C2F30E028281704723
:103BF00021B1828A42F40062828204E0828A4FF21A
:103C0000FF731A4082827047C1F3080282807047B6
:103C100001468888C0F308007047028A4FF6F073A7
:103C20001A400282028A0A430282704721B18289C5
:103C300042F00202828104E082894FF6FD731A404D
:103C40008281704782894FF2FF731A408281828994
:103C50000A4382817047028A4FF6DF731A4002825C
:103C6000028A0A430282704721B1028A42F48042EA
:103C7000028204E0028A4BF6FF731A400282704708
:103C8000818941F001018181704721B1828A42F02E
:103C90000802828204E0828A4FF6F7731A40828219
:103CA0007047028BD2B20283028B42EA0122028366
:103CB000704721B1828A42F02002828204E0828A27
:103CC0004FF6DF731A408282704721B1828A42F038
:103CD0001002828204E0828A4FF6EF731A408282D9
:103CE0007047828A4FF6FB731A408282828A0A43A7
:103CF0008282704721B1828A42F00202828204E00D
:103D0000828A4FF6FD731A40828270471AB1838A05
:103D10000B43838202E0838A8B4383827047F0B532
:103D20000346002400260025002040F66A17B94209
:103D300000D100BF1846C1F3421401F01F0601274D
:103D400007FA06F5012C01D10C3004E0022C01D158
:103D5000103000E014301AB107682F43076002E00A
:103D60000768AF430760F0BD02460020B1F5007F51
:103D700000D100BF13880B400BB1012000E00020F0
:103D8000704701F40072B2F5007F00D100BFCA4352
:103D90000280704770B502460024002300250020F1
:103DA00040F66A16B14200D100BFC1F3421501F0DE
:103DB0001F03012606FA03F3012D13D19689334020
:103DC00017E000000010014000440040004800409F
:103DD000004C0040005000400014014000780040BA
:103DE000007C0040022D02D1168A334001E0968A01
:103DF00033400C12012606FA04F41688344013B13D
:103E00000CB1012000E0002070BD10B5002200239D
:103E100040F66A14A14200D100BF0A120124944066
:103E2000A3B2DC43048010BD10B50446FE488442B2
:103E300008D101210846FFF728FD00210120FFF7E6
:103E400024FD9DE0B4F1804F08D101210846FFF721
:103E50000BFD00210120FFF707FD91E0F3488442AC
:103E600008D101210220FFF7FFFC00210220FFF70B
:103E7000FBFC85E0EE48844208D101210420FFF7D5
:103E8000F3FC00210420FFF7EFFC79E0E9488442CD
:103E900008D101210820FFF7E7FC00210820FFF7E7
:103EA000E3FC6DE0E448844208D101211020FFF7D3
:103EB000DBFC00211020FFF7D7FC61E0DF488442E3
:103EC00008D101212020FFF7CFFC00212020FFF79F
:103ED000CBFC55E0DA48844208D101210220FFF7EB
:103EE000D4FC00210220FFF7D0FC49E0D5488442F1
:103EF00009D101210804FFF7C8FC00214FF48030EC
:103F0000FFF7C3FC3CE0D048844209D101214804BA
:103F1000FFF7BBFC00214FF40030FFF7B6FC2FE0A9
:103F2000CA48844209D101218804FFF7AEFC002170
:103F30004FF48020FFF7A9FC22E0C548844208D155
:103F400001214020FFF790FC00214020FFF78CFC6E
:103F500016E0C048844208D101218020FFF784FC8C
:103F600000218020FFF780FC0AE0BB48844207D193
:103F700001218015FFF778FC0021A015FFF774FCE4
:103F800010BD00220288A84B98420ED0AC4B98423C
:103F90000BD0B0F1804F08D0A44B984205D0A44B71
:103FA000984202D0A34B984204D14FF68F731A4027
:103FB0004B881A43A04B984207D0A04B984204D09C
:103FC0004FF6FF431A400B891A4302804B68C362C5
:103FD0000B880385944B984202D0994B984201D1AB
:103FE0008B7A03860123838270474FF0FF31416053
:103FF00000210180018141808172704701858282A8
:1040000070470A46002101884FF68F73194011430B
:104010000180704741627047C16270470146486A3B
:1040200070470146088D704721B1028842F00202B4
:10403000028004E002884FF6FD731A400280704748
:1040400021B1028842F00402028004E002884FF6A7
:10405000FB731A400280704721B1028842F080024F
:10406000028004E002884FF67F731A400280704796
:1040700002884FF6F7731A40028002880A430280D2
:10408000704702884FF6FF431A40028002880A43B5
:104090000280704721B1028842F00102028004E0F0
:1040A00002884FF6FE731A400280704770B50024F4
:1040B00000220023058C4FF6FE7635400584028CE5
:1040C0008388048B4FF68F752C40B51E2C400D88CD
:1040D0002C43751E2A408D892A434D882A43524D10
:1040E000A84202D0564DA84213D14FF6F7752A4088
:1040F000CD892A434FF6FB752A408D882A434FF617
:10410000FF652B404FF6FF552B400D8A2B434D8A00
:104110002B43838004838D684563028470BD70B532
:10412000002400220023058C4FF6EF7635400584ED
:10413000028C8388048B48F6FF752C404FF6FF45B0
:104140002C400D884FF6FF7606EA05252C434FF6E6
:10415000DF752A408D8906EA05152A434D8806EA4F
:1041600005152A43304DA84202D0354DA8421DD135
:104170004FF67F752A40CD894FF6FF7606EA051582
:104180002A434FF6BF752A408D8806EA05152A4353
:104190004FF6FF352B404FF2FF752B400D8A06EA94
:1041A00085052B434D8A06EA85052B4383800483CE
:1041B0008D688563028470BD70B5002400220023E1
:1041C000058C4FF6FF6635400584028C8388848B0E
:1041D0004FF68F752C404FF6FC752C400D882C4304
:1041E0004FF6FF552A408D894FF6FF7606EA0525E2
:1041F0002A434D8806EA05252A430B4DA84202D0E2
:104200000F4DA84238D14FF2FF752A40CD894FF6A5
:10421000FF7606EA05252A434FF6FF352A408D88AA
:1042200006EA05252A4319E0000001400004004089
:1042300000080040000C0040001000400014004046
:10424000000401400040014000440140004801409A
:1042500000180040001C0040002000404EF6FF7592
:104260002B404DF6FF752B400D8A06EA05152B43B2
:104270004D8A06EA05152B43838084838D68C563C8
:10428000028470BD70B5002200230024058C4EF618
:10429000FF7635400584038C8488828B48F6FF7551
:1042A0002A404FF6FF452A400D884FF6FF7606EA72
:1042B00005252A434DF6FF752B408D8906EA053505
:1042C0002B434D8806EA05352B43FE4DA84202D00C
:1042D000FD4DA84208D14BF6FF752C400D8A4FF6D4
:1042E000FF7606EA85152C43848082838D680564F9
:1042F000038470BD002101804180818081608181C3
:10430000C18101824182704770B5034600200024BC
:104310001846183001258D40ACB21D8CA5431D8474
:1043200009B108290AD100EB610005684FF68F76C4
:10433000354005600568154305600FE00D1FC5F3A6
:104340004E052844056848F6FF7635400560056847
:104350004FF6FF7606EA02263543056070BD4163DD
:10436000704781637047C1637047016470470A46B4
:104370000021018B4FF68F73194011430183704761
:104380000A460021018B48F6FF7319404FF6FF7370
:1043900003EA02231943018370470A460021818BF7
:1043A0004FF68F7319401143818370470A460021ED
:1043B000818B48F6FF7319404FF6FF7303EA02231F
:1043C0001943818370470A460021018B4FF6F7732A
:1043D00019401143018370470A460021018B4FF2B7
:1043E000FF7319404FF6FF7303EA02231943018359
:1043F00070470A460021818B4FF6F773194011432D
:10440000818370470A460021818B4FF2FF73194068
:104410004FF6FF7303EA02231943818370470A466C
:104420000021018B4FF6FB73194011430183704744
:104430000A460021018B4FF6FF3319404FF6FF73F8
:1044400003EA02231943018370470A460021818B46
:104450004FF6FB7319401143818370470A460021D0
:10446000818B4FF6FF3319404FF6FF7303EA0223A7
:104470001943818370470A460021018B4FF67F73F1
:1044800019401143018370470A460021018BC1F393
:104490000E014FF6FF7303EA0223194301837047AD
:1044A0000A460021818B4FF67F73194011438183A7
:1044B00070470A460021818BC1F30E014FF6FF734E
:1044C00003EA02231943818370470A460021018CC5
:1044D0004FF6FD7319401143018470470A460021CD
:1044E000018C4FF6F77319401143018470470A4657
:1044F0000021018C4FF6DF7319404FF6FF7303EA7A
:1045000002131943018470470A460021018C4FF6BB
:104510007F7319404FF6FF7303EA021319430184B6
:1045200070470A460021018C4FF6FF5319404FF6A1
:10453000FF7303EA02231943018470470A460021EE
:10454000018C4FF2FF7319404FF6FF7303EA022309
:104550001943018470470A460021018C4DF6FF7310
:1045600019404FF6FF7303EA023319430184704781
:1045700030B5002301248C40A3B2048C9C430484F6
:10458000048C02FA01F5ADB22C43048430BD30B581
:10459000002304248C40A3B2048C9C430484048C28
:1045A00002FA01F5ADB22C43048430BD828B4FF288
:1045B000FF331A408283828B4FF6FF7303EA012395
:1045C0001A4382837047F0B50C461546002100223D
:1045D0000026078C4EF6FF7C07EA0C070784818BC8
:1045E000028C4FF6FF7707EA043640F6FF47394062
:1045F0004FF6FF7707EA052739434FF6FF7707EABB
:104600000337394345F6FF773A4046F480573A433B
:1046100081830284F0BD828B4FF6F3731A4082834C
:10462000828B0A4382837047F0B50C461546002101
:1046300000220026078C4FF6FF6C07EA0C07078460
:10464000818B028C4FF6FF7707EA04264FF60C7732
:1046500039404FF6FF7707EA03172F4339434FF2EC
:10466000FF573A4046F480773A4381830284F0BD95
:10467000028B4FF2FF331A400283028B4FF6FF7317
:1046800003EA01231A4302837047F0B50C4615462E
:10469000002100220026078C4FF6EF7C07EA0C076A
:1046A0000784018B028C4FF6FF7707EA041640F669
:1046B000FF4739404FF6FF7707EA033739434FF694
:1046C000FF7703E0000001400004014007EA0527EE
:1046D00039434FF65F773A4046F010073A4301837B
:1046E0000284F0BD028B4FF6F3731A400283028BF3
:1046F0000A4302837047F0B50C461546002100229C
:10470000068C4FF6FE773E400684018B028C4FF6F6
:104710000C7631407E1C06EA03162E4331434FF6D9
:10472000F576324044F00106324301830284F0BD45
:1047300070B505460C46208850B92389A288618847
:104740002846FFF7D8FFE1882846FFF7CBFF25E092
:10475000208804280AD12389A28861882846FFF787
:1047600094FFE1882846FFF783FF17E02088082898
:104770000AD12389A28861882846FFF755FFE1887E
:104780002846FFF748FF09E02389A2886188284668
:10479000FFF719FFE1882846FFF708FF70BD0021E9
:1047A00001804180012181800021C1800181704709
:1047B0002DE9F04105460C4600260127608808B91E
:1047C000022600E00026A088012801D1022700E08F
:1047D00001272088A0B92389A28861882846FFF78D
:1047E0008AFFE1882846FFF77DFF23893A46314654
:1047F0002846FFF74AFFE1882846FFF739FF13E014
:104800002389A28861882846FFF73FFFE188284670
:10481000FFF72EFF23893A4631462846FFF76BFF04
:10482000E1882846FFF75EFFBDE8F0810146486B4E
:1048300070470146886B70470146C86B7047014658
:10484000086C70470A884B881A438B881A43CB88B8
:104850001A430B891A434B891A438B891A43A0F8D0
:10486000442070470021018041808180C180018106
:1048700041818181704731B1B0F8442042F4004257
:10488000A0F8442005E0B0F84420C2F30E02A0F8DE
:104890004420704721B1828842F00402828004E003
:1048A00082884FF6FB731A408280704721B182885C
:1048B00042F00102828004E082884FF6FE731A40C3
:1048C000828070471AB183890B43838102E0838918
:1048D0008B43838170478182704702460020138A90
:1048E0000B400BB1012000E000207047CA43028258
:1048F000704730B50246002000230024158A05EADF
:104900000103958905EA010413B10CB1012000E00F
:10491000002030BDCA430282704741EA0203A0F87A
:10492000483070471AB183890B43838102E0838941
:104930008B438381704721B1828842F008028280D4
:1049400004E082884FF6F7731A408280704701892D
:104950004FF6F8721140018170470A460021018923
:104960004FF68F73194011430181704730B50446EB
:104970000D4629462046FFF7F0FF208940F007004A
:10498000208130BD2DE9F04104460D4616461F46F4
:10499000602D06D13B46012231462046FFF775FEC9
:1049A00005E03B46012231462046FFF7A4FE29469A
:1049B0002046FFF7D2FF208940F007002081BDE8A4
:1049C000F08130B50C4600210189C9B24FF6FF7560
:1049D00005EA0325154325432943018130BD2DE90F
:1049E000F04105460E4617469846002443463A468F
:1049F00031462846FFF7E5FF2C894FF6F870044052
:104A000044F007044FF68F70044044F070042C818A
:104A1000BDE8F081F0B504460D4616461F463B46FC
:104A2000324629462046FFF7CCFF208940F48040DB
:104A30002081F0BD82884FF68F731A408280828871
:104A40000A438280704702894FF6F8731A40028148
:104A500002890A430281704702894FF67F731A4028
:104A6000028102890A4302817047F0B50C4615465F
:104A70001E460021002200230189028B038C4FF681
:104A8000F877394021434FF6FC473A4040F201178E
:104A90003A434FF6DD773B404FF6FF7707EA0617BC
:104AA0002F433B43018102830384F0BD21B18288FF
:104AB00042F08002828004E082884FF67F731A40C1
:104AC00082807047A0F850107047000010B504466F
:104AD000FB48844208D101218014FEF7D6FE002154
:104AE000A014FEF7D2FE3CE0F648844208D1012132
:104AF0000014FEF7B9FE00212014FEF7B5FE30E0E9
:104B0000F148844208D10121C013FEF7ADFE002117
:104B1000E013FEF7A9FE24E0EC48844208D101210D
:104B20004014FEF7B2FE00216014FEF7AEFE18E05E
:104B3000E748844209D101210805FEF7A6FE0021BD
:104B40004FF48010FEF7A1FE0BE0E248844208D14A
:104B500001214805FEF799FE00214FF40010FEF7F1
:104B600094FE10BD10B50022028802F441520B8859
:104B70004C8823438C882343CC8823430C892343CC
:104B80004C8923438C892343CC8923431A430280D5
:104B9000838B4FF2FF74234083830B8A038210BD03
:104BA0002DE9F04F0025022300244FF001090022D7
:104BB0000026002794469046B0F81CA04FF2400B08
:104BC0000AEA0B0AA0F81CA04FF0020AA0F820A0E5
:104BD000858BD1F808A0BAF1020F01D100BF82E0A5
:104BE000B1F804A0BAF1000F02D14FF0010901E0C1
:104BF0004FF00209DFF8E0A2DAF800A00AF4000A98
:104C0000BAF1000F09D0DFF8D0A2DAF800A02AF438
:104C1000000ADFF8C4B2CBF800A0DFF8BCA20AF1AA
:104C20007C0ADAF800A0CAF3881CDFF8ACA20AF10B
:104C30007C0ADAF800A0CAF30278DFF89CA2AAF195
:104C4000040ADAF800A00AF03F07DFF88CA2AAF104
:104C5000040ADAF800A00AF4800ABAF5800F08D135
:104C6000DFF878A2BAFBF7FA0AFB0CFABAFBF8F6FF
:104C700007E0DFF86CA2BAFBF7FA0AFB0CFABAFB02
:104C8000F8F6B1F806A0BAF5007F0ED14FEA162A61
:104C90000AEB8A0A4FEA4A0AD1F808B0BAFBFBFAD3
:104CA0000AF1050A1FFA8AF20FE04FEA491AB6FB29
:104CB000FAFA0AEB8A0A4FEA4A0AD1F808B0BAFBB4
:104CC000FBFA0AF1050A1FFA8AF24FF00A0AB2FB50
:104CD000FAF202F00104A2EB040ACAF34F034FF602
:104CE000FF7A0AEA0424022B01DBFF2B01DD0223F9
:104CF0000024B1F806A04AEA040A4AEA030AA0F826
:104D000020A0B1F804A0B1F80CB04AEA0B0AB1F83F
:104D100002B04AEA0B0AB1F800B04AEA0B0A4AF4B8
:104D2000006A4AEA05058583BDE8F08F002101800D
:104D300041808180C180018141818181C1810721C0
:104D4000018270470021018041808180C180022161
:104D5000816000218181704721B1028842F04002C8
:104D6000028004E002884FF6BF731A400280704749
:104D700021B1828B42F48062828304E0828B4FF601
:104D8000FF331A408283704702884FF2FF731A4044
:104D9000028002880A4302807047B1F5804F04D137
:104DA000028842F48042028004E002884BF6FF73DE
:104DB0001A40028070474FF6FF62914204D0028889
:104DC00042F48072028004E002884FF6FF631A40CA
:104DD0000280704721B1828842F00402828004E0A0
:104DE00082884FF6FB731A408280704721B1828817
:104DF00042F01002828004E082884FF6EF731A407E
:104E00008280704730B500220023848B4FF240052A
:104E10002C40848302240484828B0C88B4F5007FA8
:104E200001D00C8814B94FF4807308E00C88B4F5F5
:104E3000407F03D00C88B4F5807F00D100238C889C
:104E40008D892C434D882C431C4344F40064224339
:104E5000828330BD0146888970478181704721B1C6
:104E6000028842F40052028004E002884DF6FF738B
:104E70001A4002807047018841F4805101807047D8
:104E800002460020012901D0108B00E0908A704773
:104E90000146088A70471AB183880B43838002E079
:104EA00083888B438380704730B5002400230C1126
:104EB0000125A540ABB2AAB185881D43858014E0C9
:104EC0000030014000380040003C00400034014008
:104ED00000500140005401400838024000127A009E
:104EE0000024F40085889D43858030BD0246002063
:104EF00013890B400BB1012000E000207047CA432A
:104F000002817047F0B502460020002400230025EE
:104F100001F00F070126BE40B4B20B1101269E40DE
:104F2000B3B2968806EA03051689264016B10DB17C
:104F3000012000E00020F0BD10B5002201F00F04B8
:104F40000123A3409AB2D343038110BD10B50121C0
:104F5000C802FEF79AFC00214FF40060FEF795FCB2
:104F600010BD00216C4A116847F6FF629143027D33
:104F700083681A4343681A43C3681A4303681A4391
:104F800003691A431143644A116070470021017597
:104F9000016041608160C160016170475F490860E4
:104FA00070475D49091F086070475B48001F006833
:104FB00000F0030070470021574B1B1D02681A6068
:104FC0001A1D11686FF30A01D0E901231A43C3685F
:104FD0001A4303691A4311434F4A0832116070475C
:104FE0000021016041608160C160016170474A48F1
:104FF0000C300068C0B2704708B501460020009030
:1050000045481030084400900098006808BD002111
:10501000414B203302681A601B1D42681A601A1D3A
:10502000116821F0F701D0E902231A4303691A43FA
:1050300043691A431143384A2832116070474FF0D0
:10504000FF310160002141608160C1600161416107
:10505000704731482C30006870472F487C3000681A
:1050600070472D497C31086070472B4844300068F8
:1050700070472B49086070472949091D086070472F
:10508000274908310860704725490C31086070478E
:105090002449086070472349091D086070470121B1
:1050A0008143204A0832116070471E490C31086064
:1050B00070471B4914390860704739B1164A3832B5
:1050C00012680243144B38331A6006E0124A383231
:1050D00012688243104B38331A6070470146002033
:1050E0000D4A303212680A400AB1012000E0002067
:1050F0007047094934310860704701460020064A6C
:10510000303212680A400AB1012000E000207047E6
:105110000149343108607047042C0140A0802542C9
:10512000A0852542AC812542016821F00101016082
:105130000021016041608160C16001612121416104
:10514000DB49884204D13D21D94A103A91608CE074
:10515000D7491831884205D14FF47461D44A103AC6
:10516000916082E0D2493031884205D14FF4741108
:10517000CF4A103A916078E0CD494831884205D154
:105180004FF07461CA4A103A91606EE0C8496031CC
:10519000884204D1C749C64A103AD16065E0C44983
:1051A0007831884204D1C449C14A103AD1605CE0E8
:1051B000BF499031884204D1C049BD4A103AD160FC
:1051C00053E0BB49A831884205D14FF03D51B84A60
:1051D000103AD16049E0BA49884204D13D21B84A29
:1051E000083A116041E0B6491831884205D14FF4C0
:1051F0007461B34A083A116037E0B14930318842EE
:1052000005D14FF47411AE4A083A11602DE0AC4953
:105210004831884205D14FF07461A94A083A1160BB
:1052200023E0A7496031884204D1A249A44A121F51
:1052300011601AE0A2497831884204D19E49A04AFF
:10524000121F116011E09E499031884204D19B49A0
:105250009B4A121F116008E09949A831884204D185
:105260004FF03D51964A121F1160704710B5002251
:105270000268944B1A40CC680B6823434C69234363
:105280008C692343CC6923430C6A23434C6A234330
:105290008C6A23434C6B23438C6B23431A43026079
:1052A000426922F00702D1E90B3423431A434261D9
:1052B0000B6943604B6883608B68C36010BD00213D
:1052C000016041608160C160016141618161C161D2
:1052D000016241628162C16201634163816370471F
:1052E00021B1026842F00102026003E0026822F08C
:1052F00001020260704721B1026842F4004202607C
:1053000003E0026822F400420260704721B10268A3
:1053100042F02002026003E0026822F020020260F4
:105320007047416070470146486880B2704722B1BB
:10533000036843F40023036003E0036823F40023BD
:1053400003600161704721B1026842F4802202606B
:1053500003E0026822F48022026070470AB1016112
:1053600000E0C1607047014600200A6802F4002294
:105370000AB1012000E000207047014600200A68C1
:1053800002F001020AB1012000E00020704701464E
:1053900000204A6902F03800704730B503460A46DB
:1053A00000200024464DAB4202D24149103901E0B1
:1053B0004349103902F000550DB14C6800E00C680B
:1053C000414D2C4004EA02050DB1012000E000200F
:1053D00030BD02463A4B9A4202D23548103801E0BD
:1053E0003748103801F000531BB1374B0B40C360F6
:1053F00002E0354B0B408360704710B501F080032D
:105400004BB122B1436943F08003436103E0436938
:1054100023F08003436180290BD02AB1036801F097
:105420001E042343036004E0036801F01E04A34349
:10543000036010BD70B50246002000240025204EF8
:10544000B24202D21A4B103B01E01D4B103B1F4EE3
:105450000E4036B11E2606EAD124166806EA040577
:1054600002E0566906F0800501F000560EB15C6856
:1054700000E01C68144E344004EA010616B10DB178
:10548000012000E0002070BD02460D4B9A4202D27E
:105490000748103801E00A48103801F000531BB1EA
:1054A000094B0B40C36002E0074B0B408360704721
:1054B000106002403D000020400F002000003D2011
:1054C000106402403F801CF07D0F7D0F3C0F3C0FAD
:1054D00008B50022009200200021CA22F94B1A6070
:1054E00053221A60F74A183A126822F0A002F54BCC
:1054F000183B1A6000BFF34A183A126802F0200104
:10550000009A521C0092009AB2F5003F01D0002987
:10551000F1D0EC4A183A126802F020020AB10120D8
:1055200000E00020FF22E74B1A6008BD08B500220A
:10553000009200200021E34A183A126802F040026B
:10554000E2B9421EDF4B183B1A6000BFDD4A183A31
:10555000126802F04001009A521C0092009AB2F5C3
:10556000803F01D00029F1D0D64A183A126802F0E3
:1055700040020AB1012002E0002000E0012008BD45
:1055800038B50020009000240025CA20CD490860CD
:1055900053200860FFF7CAFF00B952E00020C94954
:1055A0002439086042F20110091D0860081D0068D6
:1055B00000F00700091D086000BFC24818380068E5
:1055C00000F004040098401C00900098B0F5803F63
:1055D00001D0002CF1D0BB481838006800F004005E
:1055E00008B900252DE0B7481C3800680020B549EF
:1055F0001C3908604FF6FF70B24910390860B24894
:10560000091F08600020AF490C390860091D0860B7
:10561000091D0860AB4908310860AA4918310860C3
:10562000A84920310860091D0860A649183908609A
:10563000A4491C310860FFF74BFF08B9002500E0C2
:105640000125FF209F490860284638BD9D4818382D
:10565000006820F080009B4918390860704730B519
:1056600004460025CA209749086053200860FFF7C8
:105670005DFF00B91DE093481C38006820F0400031
:1056800090491C39086008460068216808438D4924
:105690001C3908608B491439A06808600846006806
:1056A000A18840EA0140874914390860FFF7CEFF1E
:1056B0000125FF2083490860284630BD0021016094
:1056C0007F214160FF218160704718B1FF217D4A31
:1056D000116004E0CA217B4A1160532111607047B8
:1056E00030B504460025CA2076490860532008607A
:1056F000FFF71CFF00B914E044B172481C38006881
:1057000040F010006F491C39086007E06D481C38F4
:10571000006820F010006B491C390860FFF796FF05
:105720000125FF2067490860284630BDCA21654A27
:1057300011605321116040B162491C39096841F080
:105740002001604A1C3A116007E05E491C39096873
:1057500001F0DF015B4A1C3A1160FF21594A1160D8
:1057600070470146002204E0501CC2B2A1F10A00B9
:10577000C1B20A29F8DA100741EA10607047014601
:1057800000BF080900EB8000420001F00F00104448
:10579000C0B270472DE9F04105460C4600260027AF
:1057A00055B948481C38006800F0400000B102E0DC
:1057B0000020E07000BF0EE042481C38006800F096
:1057C000400020B12078FFF7DAFF064602E0002013
:1057D000E07000BF00BF55B120780004617840EA56
:1057E0000120A1780843E17840EA014611E02078E1
:1057F000FFF7B7FF4FEA00486078FFF7B2FF48EACB
:105800000028A078FFF7ADFF48EA0008E07848EAF2
:105810000046CA202B49086053200860FFF786FE27
:1058200008B9002714E02948304026492439086087
:10583000FFF70CFF23481C38006800F0200030B947
:10584000FFF746FE08B9002702E0012700E0012724
:10585000FF201C4908603846BDE8F0810021C17076
:10586000017041708170704770B506460C46002586
:10587000144824380068154900EA0105C5F30540BD
:105880002070C5F30620607005F07F00A07005F45D
:105890008000000CE0705EB92078FFF770FF207088
:1058A0006078FFF76CFF6070A078FFF768FFA0706A
:1058B00070BD00200349091D0868024920390968A4
:1058C0007047000024280040FF007F007F7F7F009A
:1058D0002DE9F04105460C46002600274DB96078B9
:1058E00000F01000102804D1607820F010000A3079
:1058F000607005B908E06078FFF741FF0646A078C0
:10590000FFF73DFF064600BF55B1E078000461781F
:1059100040EA0120A1780843217840EA413611E0AD
:10592000E078FFF71EFF4FEA00486078FFF719FFA5
:1059300048EA0028A078FFF714FF48EA000820781A
:1059400048EA4036CA20FE49086053200860FFF745
:10595000EDFD08B9002714E0FA483040F849203935
:105960000860FFF773FEF6481C38006800F020005E
:1059700030B9FFF7ADFD08B9002702E0012700E0CC
:105980000127FF20EE4908603846BDE8F08101217B
:105990000170817041700021C170704770B506467A
:1059A0000C460025E64820380068E64900EA010573
:1059B000280CE070C5F30420607005F03F00A07073
:1059C000C5F3423020705EB9E078FFF7D8FEE07092
:1059D0006078FFF7D4FE6070A078FFF7D0FEA0706B
:1059E00070BD2DE9F04105460E46144600276DB9FD
:1059F000D3481C38006800F0400000B102E00020ED
:105A0000E07000BFA06800B91AE019E0CC481C386B
:105A1000006800F0400020B12078FFF7B0FE074694
:105A200002E00020E07000BFA06820B9207BFFF7F3
:105A3000A6FE074604E0207BFFF7A1FE074600BF55
:105A400095B120780004617840EA0120A1780843EC
:105A5000E17840EA0140217B40EA0160A168084307
:105A6000616840EA01071BE02078FFF77AFE4FEA01
:105A700000486078FFF775FE48EA0028A078FFF735
:105A800070FE48EA0008E07848EA0048207BFFF70B
:105A900068FE48EA0060A1680843616840EA0107BF
:105AA000CA20A749086053200860B6F5807F03D15B
:105AB000A3480838076002E0A148001F0760FF20E4
:105AC0009F490860BDE8F0810021C17001704170FC
:105AD00081708160012101730021416070472DE9CF
